S01A00004175746F74756E696E675F666561747572652E7372656391
S11300000C9476000C9488000C9488000C9488005E
S11300100C9488000C9488000C9488000C9488003C
S11300200C9488000C9488000C9488000C9488002C
S11300300C9488000C9488000C9488000C9488001C
S11300400C9488000C9488000C9488000C9488000C
S11300500C9488000C9488000C9488000C948800FC
S11300600C9488000C9488000C9488000C948800EC
S11300700C9488000C94C2000C9488000C948800A2
S11300800C9488000C9488000C9488000C948800CC
S11300900C9488000C9488000C9488000C948800BC
S11300A00C9488000C9488000C9488000C948800AC
S11300B00C9488000C9488000C9488000C9488009C
S11300C00C9488000C9488000C9488000C9488008C
S11300D00C9488000C9488000C9488000C9488007C
S11300E00C9488000C9488000C94880011241FBE82
S11300F0CFEFCDBFDFE7DEBF20E4A0E0B0E401C076
S11301001D92A130B207E1F70E94A1000C94D40023
S11301100C94000088ED90E084BF9093680091E017
S113012084BF90937C0020E830E084BF209360007B
S11301300895E0E4F4E080E8828381878AE0878B95
S11301400895F8940E9499000E948A00789428EDFA
S113015031E090E0809100408130E1F7F89424BFD1
S1130160309368004FE35DE083E0415050408040AD
S1130170E1F700C0000024BF909368009093004012
S11301807894E8CF1F920F920FB60F9211248F9399
S113019081E08093004080E8809349048F910F9020
S10F01A00FBE0F901F901895F894FFCF2D
S9030000FC
